:020000040800F2
:10000000003A002009740008691000086B1000080D
:10001000731000087B100008831000080000000027
:100020000000000000000000000000008B1000082D
:100030008D100008000000008F10000891100008CB
:100040002574000825740008257400080F0C0008AA
:100050002574000825740008AD100008BD100008C4
:10006000BF100008C110000825740008277400089C
:10007000297400082B7400082D7400082F740008E0
:100080002F7400082F7400082F74000823740008D0
:100090005D17000831740008337400089D100008D3
:1000A00037740008397400083B7400083D74000878
:1000B000C3100008F9100008FB1000084574000880
:1000C00047740008497400084B7400084D74000818
:1000D0004F740008517400085374000855740008E8
:1000E00057740008597400086117000800F002F8FE
:1000F00000F0B0F80AA090E8000C82448344AAF112
:100100000107DA4501D100F0A5F8AFF2090EBAE80F
:100110000F0013F0010F18BFFB1A43F0010318473B
:10012000F4920000149300000A444FF0000C10F801
:10013000013B13F0070408BF10F8014B1D1108BF65
:1001400010F8015B641E05D010F8016B641E01F805
:10015000016BF9D113F0080F1EBF10F8014BAD1C55
:100160000C1B09D16D1E58BF01F801CBFAD505E073
:1001700014F8016B01F8016B6D1EF9D59142D6D3CD
:10018000704700000023002400250026103A28BFF5
:1001900078C1FBD8520728BF30C148BF0B607047F9
:1001A0006E2907F0A984702907F09582662908F066
:1001B0008487652908F08187672908F07E8761298F
:1001C00008F07D8703681B0A28BF41F08001692978
:1001D00007F05684642907F05384752907F050848A
:1001E0006F2907F08085782907F06182E92907F0F7
:1001F0001B85E42907F01885F52907F01585EF29F7
:1002000007F07D85F82907F060820368DB0928BFC5
:1002100041F08001632908F0B781732908F0BC819F
:10022000E32908F0C781F32908F0CC81002070474A
:100230001FB507F0C9FD04000020002108F0F6FEFC
:10024000401C60600020002108F006FFE0601FBD38
:1002500010B510BD08F0DEF91146FFF7E9FF00F018
:10026000D3FE08F0AFFA03B4FFF7F2FF03BC08F0C7
:10027000F3FA00002B4A052818D2DFE800F0140F2B
:100280000F0F140002210BE001290FD1022102E01F
:1002900001290BD10021104605F0C5BD0029F7D179
:1002A000104605F0C2BD0029EED1EBE7704708B556
:1002B0000121042005F089FF0220ADF80000102084
:1002C0008DF8030003208DF802006946154805F0FB
:1002D0003CFD00210420FFF7CDFF08BD10B5124BF7
:1002E00002290DD0042804D003F82010FFF7C2FF24
:1002F00010BD0022521C03F82010042AFADBF5E797
:1003000028B1012803D0022801D00328F0D102210E
:1003100003F8201003EB8000428010BD7047704747
:100320007047704700080140000000200C49087029
:10033000704710B54FF4407005F076F800F04DF9B5
:1003400000F02EFBFFF7B3FF00F0DBFA00F0D3F86C
:1003500000F093FDBDE8104000F0F0BC00207047B5
:100360001000002008B50121042005F02EFF022016
:10037000ADF8000048208DF803006946604805F09C
:10038000E4FC08BD08B50121042005F01EFF04208F
:10039000ADF8000048208DF803006946584805F084
:1003A000D4FC08BD08B50121564805F05DFD0121CA
:1003B000082005F00AFF0820ADF8000028208DF87D
:1003C00003006946504805F0C0FC08BD08B501218E
:1003D0004C4805F049FD0121082005F0F6FE0820F3
:1003E000ADF8000028208DF803006946464805F066
:1003F000ACFC08BD1CB50121002005F05EFD02200B
:10040000009000208DF8040010208DF805000120D8
:100410008DF80600684605F09DF91CBD1CB502214B
:10042000002005F04AFD0420009000208DF8040013
:1004300010208DF8050001208DF80600684605F0B3
:1004400089F91CBD1CB50321012005F036FD0820EB
:10045000009000208DF8040010208DF80500012088
:100460008DF80600684605F075F91CBD704708B5A3
:1004700007208DF800000F208DF8010000208DF876
:10048000020001208DF80300684604F0D2FF08BD89
:1004900008B508208DF800000F208DF8010000201D
:1004A0008DF8020001208DF80300684604F0C1FFBA
:1004B00008BD08B509208DF800000F208DF8010057
:1004C00000208DF8020001208DF80300684604F03A
:1004D000B0FF08BD08B509208DF800000F208DF889
:1004E000010000208DF8020001208DF8030068460D
:1004F00004F09FFF08BD7047002070477047000060
:100500000008014000023000000C01405A49086018
:100510004FF0E020026942F0010202610868002801
:10052000FCD1704754480168002902D00168491E77
:10053000016070473EB50121022005F04FFE052005
:10054000ADF8040041F61F40ADF8000000204B4C10
:10055000ADF80600ADF802006946204606F0DEF868
:1005600001221146204606F097FB0021204606F0A6
:100570007EFB3EBD08B51C208DF800000B208DF8D9
:10058000010000208DF8020001208DF8030068466C
:1005900004F04FFF08BD08B51D208DF800000B20AA
:1005A0008DF8010000208DF8020001208DF8030075
:1005B000684604F03EFF08BD08B51E208DF8000017
:1005C0000B208DF8010000208DF8020001208DF82D
:1005D0000300684604F02DFF08BDFEB528484FF41F
:1005E0007A710068B0FBF1F0401EB0F1807F31D22B
:1005F0004FF0E024606166170F21304600F02CF8C0
:100600000025A561072020610521304600F024F86F
:100610000121084605F0E2FD40F2E730ADF80400A4
:1006200041F61F40ADF800004FF08044ADF8065091
:10063000ADF802506946204606F070F801221146D6
:10064000204606F029FB0121204606F010FBBDE8FC
:10065000FE408FE7FEE770470907090E002804DB1C
:1006600000F1E02080F80014704700F00F0000F166
:10067000E02080F8141D70471400002000040040A2
:10068000FC0100202DE9F0410E460746012A0FD05B
:10069000BC4C0021204605F002F8BA484438866474
:1006A00007650121204604F0FAFF3046BDE8F081DD
:1006B0000025B54C0BE021882046795D06F009FE47
:1006C0004021204606F066FE0028F9D06D1CB54298
:1006D000F1DBEAE72DE9F0410E4607460025AB4C79
:1006E0000BE021882046795D06F0F3FD402120468D
:1006F00006F050FE0028F9D06D1CB542F1DB304603
:10070000D4E70FB44FF4007110B503ABA048029AC0
:1007100006F060FF81B201229D48FFF7B3FF10BCD5
:100720005DF814FB2DE9F04301218BB0084605F07C
:1007300043FDDFF85082404604F01AFF924D00243A
:100740002D1D102080260095CDE904464702029019
:10075000CDE9084706940794694640460A9404F098
:1007600074FF01220221404604F0A4FFDFF8188242
:1007700001228021404606F078FDDFF8089209F159
:100780001409484604F0F4FE82480095CDE90104BE
:1007900003A9012081E8510020200694CDE90740FB
:1007A000CDE909746946484604F04FFF0122022151
:1007B000484604F07FFF0121484604F070FF012203
:1007C0004021404606F051FD0BB0BDE8F0832DE915
:1007D000F04301218BB0084605F0EEFCDFF8A48160
:1007E00008F13C08404604F0C3FE684D00242D1D6E
:1007F000102080260095CDE9044647020290CDE9FD
:10080000084706940794694640460A9404F01DFF81
:1008100001220221404604F04DFFDFF870810122E1
:100820008021404606F021FDDFF8589109F12809A2
:10083000484604F09DFE57480095401CCDE9010450
:1008400003A9012081E8510020200694CDE907404A
:10085000CDE909746946484604F0F7FE01220221F9
:10086000484604F027FF0121484604F018FF012202
:100870004021404606F0F9FCA6E708B50E208DF8A9
:1008800000000A208DF8010000208DF802000120F0
:100890008DF80300684604F0CCFD08BD08B50F20B4
:1008A0008DF800000A208DF8010000208DF802006C
:1008B00001208DF80300684604F0BBFD08BD08B5B3
:1008C00011208DF800000A208DF8010000208DF81D
:1008D000020001208DF80300684604F0AAFD08BD5F
:1008E00008B510208DF800000A208DF801000020C6
:1008F0008DF8020001208DF80300684604F099FD90
:1009000008BD1FB5012144F2040005F05EFC4FF460
:100910000070ADF8000003208DF8020018201E4C76
:100920008DF803006946204605F00FFA2015ADF852
:10093000000004208DF803006946204605F005FA02
:10094000164800900020ADF80400ADF80600ADF8A0
:100950000800ADF80C0008200B4CADF80A00694601
:10096000204606F0EDFB012240F22551204606F01C
:1009700064FC0121204606F056FCFFF7D3FEBDE8DB
:100980001F407AE744000240003801400044004024
:100990001002002018000020000801400018150077
:1009A0007047F8B50546042016460F4600248DF81A
:1009B000000004F04EFF352005F059F9284604F0F8
:1009C00083FF8DF800009DF8000004280AD015E090
:1009D00057F82410284605F016F88DF80000641C1E
:1009E000E4B22D1DB44203D29DF800000428EFD0DC
:1009F00004F03BFF9DF80000042801D00020F8BD62
:100A00000120F8BD10B5002304E010C841F82340D0
:100A10005B1CDBB29342F8D310BD00002DE9F04718
:100A2000BF480088BE49091D0988DFF8F88201EB3C
:100A30000047B7FBF8F4BC48BC4D0188A14231D057
:100A4000048040F2B2764FF4B77A4FF4B6790FE0F3
:100A5000304600F0F1F838B1544502D3A4F5B7742C
:100A600004E0761CB6B205E0A4F26D14761CB6B2B2
:100A70004C45EDD8AE800026DFF8B4920CE0A88893
:100A800000F0DAF808B1012E47D019F80600A042AC
:100A900004D8241A761CB6B21C2CF0D2761CAE7187
:100AA000641CEC71B7FBF8F108FB11704FF4616145
:100AB000B0FBF1F22A70B0FBF1F201FB12033C2211
:100AC000B3FBF2F36B70B0FBF1F301FB1301B1FB6D
:100AD000F2F002FB1010A870A888AA79EB796424C0
:100AE000B0FBF4F1B0FBF4F6C9B204FB1600132915
:100AF00001D96430C0B200EB90010724B1FBF4F6D9
:100B000004FB16118A4E19440C3E1644800716F851
:100B1000016C314489B204D007E01D2CBED31D3CCA
:100B2000B8E7032A01D2491E89B2B1FBF4F004FBF5
:100B3000101028720020BDE8F0877CB50024042046
:100B400004F0F3FC45F250060025B04245D00121E7
:100B50004FF0C05005F042FB012005F0E1F904F030
:100B6000BBFC012005F0CEFA08E0641CE4B20A20C8
:100B700000F08AF9FA2C01D301207CBD412005F058
:100B80004AFA0028F1D04FF4807005F0CCFA012029
:100B900005F0CEFA05F0BAFB05F0BEFB01210846D0
:100BA00005F062FB05F0B2FB05F067FB47F6FF704E
:100BB00005F087FB05F0AAFB3720CDE900500A239A
:100BC00002220C2140F2D97000F049F805F05CFBDC
:100BD0003146042004F0A2FC07E005F09DFB012152
:100BE000084605F041FB05F091FB03208DF800005D
:100BF0000F208DF801008DF8025001208DF80300C0
:100C0000684604F016FCFFF709FF00207CBD10B514
:100C1000012005F09AFB08B1FFF700FF022005F064
:100C200094FB10B1022005F09EFB052005F09BFB14
:100C3000BDE8104005F06ABB81070CD16421B0FB10
:100C4000F1F201FB120141B94FF4C871B0FBF1F2AE
:100C500001FB120008B100207047012070472DE908
:100C6000F05F06460024A0F2B2709B469246894689
:100C7000822802D30120BDE8F09F40F2B2752D4FCB
:100C8000DFF8B48008E02846FFF7D6FF08B13C44FF
:100C900000E044446D1CADB2B542F4D3A9F10100AB
:100CA000C7B20025DFF88880DFF8789010E000BF39
:100CB00018F8050040F2A321484304EBC014304665
:100CC000FFF7BAFF10B1012D00D14C446D1CADB23D
:100CD000BD42EDD340F2A3210AFB01F0114904EB20
:100CE000C01049420844CBEB4B12C2EB0B2100EB86
:100CF00001100A99C1EB011100EB81000B99441816
:100D000001214FF0C05005F069FA012005F008F903
:100D1000204605F0C9FA05F0F9FA0020ABE700001B
:100D200018280040805101001A0000201004002003
:100D3000BE9100080085E2018033E10110B500F0AA
:100D400007FA00F034FA00F049FABDE8104001F06B
:100D5000ADBC10B5002400F06FFA00B101242046AC
:100D600010BD00F067BB000008B517208DF800002B
:100D700001208DF8010000218DF802108DF803008C
:100D8000684604F056FB08BD1CB50521012005F09E
:100D900094F82020009000208DF8040008208DF8A1
:100DA000050001208DF80600684604F0D3FCFFF72B
:100DB000DBFF1CBDF0B5314E87B0304605F0DCFAE4
:100DC0000021ADF804104FF48270ADF80600ADF8C4
:100DD0000C107015ADF80E001024ADF80810ADF829
:100DE00010400720ADF80A10ADF81210ADF814004D
:100DF00001A9304605F0E4FAA020ADF80000182063
:100E00008DF803001E4F03258DF8025069463846C1
:100E100004F09BFF4020ADF8000048208DF803004F
:100E20006946384604F091FFADF800408DF8034064
:100E30008DF802506946384604F087FF002130469D
:100E400005F073FB0121304605F037FB10213846D1
:100E500004F0E9FF0121082005F0B7F92020ADF8E2
:100E6000000028208DF803006946064804F06DFF55
:100E7000FFF78AFF07B00020F0BD9BE7003001407C
:100E800000080140000C01404FF47A714843FFF71D
:100E90003DBB70477047344800687047334BF0B52E
:100EA000B1FBF3F203FB12123C24B2FBF4F504FB9A
:100EB000152505704FF46165B2FBF5F605FB1626A6
:100EC000B6FBF4F4B2FBF5F2B1FBF3F144708270BF
:100ED0008AB24FF4B7754FF4FA616E1EC1804FF4B9
:100EE000C873642411E000BFB1FBF3F703FB1717CD
:100EF000EFB1B1FBF4F704FB17170FB18F0716D052
:100F00003746D21B491C92B2C18089B2B1FBF3F7BC
:100F100003FB17176FB1B1FBF4F704FB17170FB101
:100F20008F0706D037469742DED900250EE02F46C0
:100F3000E7E72F46F7E700BFB1FBF3F603FB161612
:100F40000EB1B1FBF4F61F3A92B26D1C0571B1FB04
:100F5000F3F503FB15150DB1B1FBF4F505791F2A67
:100F6000EAD2C270F0BD70471C0000208051010021
:100F700010B586B005F01EF84FF48034204605F019
:100F800032F805F05DF828B3102004F059FC022077
:100F900004F046FC002005F08BF8002005F096F8E0
:100FA000A01105F08CF8601005F0A5F84FF4E011E1
:100FB000204605F066F8012005F06BF8392005F0B1
:100FC0002AF80028FAD0022005F066F805F06BF840
:100FD0000828FBD1684605F0AFF80121080305F0A9
:100FE000F4F80121880305F0F9F801210D2005F03E
:100FF000ECF806B010BD10B506F092FAFFF7B8FF96
:10100000BDE81040FFF795B9FFF7F5FF03A206A171
:1010100008A0FFF776FB02F093F8FEE74175672022
:10102000203220323032340032333A31373A3139DB
:101030000000000057656C636F6D6520546F20558C
:1010400057422044656275672070726F6A656374E9
:10105000202C6974277320636F64696E6720617444
:101060002025732025730A00704724A0FFF749FB51
:10107000FEE727A0FFF745FBFEE72AA0FFF741FBAD
:10108000FEE72DA0FFF73DFBFEE770477047704776
:101090002E484168491C4160FFF744BA10B5AFF3D0
:1010A0000080BDE81040202004F0B2BB10B5AFF3C3
:1010B0000080BDE81040012004F0AABB70477047D3
:1010C000704710B501218C07204605F0FAFF002873
:1010D00011D00121204606F000F81C480188491C67
:1010E00089B20180B1F5004F01D300210180BDE834
:1010F0001040FFF7B0BA10BD704770474861726486
:101100004661756C745F48616E646C65720A0000BC
:101110004D656D4D616E6167655F48616E646C65BC
:10112000720A00004275734661756C745F48616EA7
:10113000646C65720A0000005573616765466175ED
:101140006C745F48616E646C65720A002000002058
:1011500038B5F6494FF48072A1F1200000F0D6FCBA
:10116000F3494FF48062A1F5887000F0CFFC0121B3
:10117000082005F02AF80220ADF8000003208DF8C1
:10118000020010208DF803006946EA4804F0DDFDF6
:101190004FF48024204604F03BFBE74908200C6014
:1011A000487101208871084604F0D4FA38BD10B5A2
:1011B000002004F09CFF0121BDE81040C80505F0A7
:1011C0000DB8DE49032008607047DD48817ADB48AE
:1011D00009B1052100E001210160704738B51420F4
:1011E0008DF8000002208DF8010000248DF80240E7
:1011F00001208DF80300684604F01BF92A208DF8C1
:1012000000008DF80140684604F013F938BDC94A62
:1012100000284FF00201104601D004F004BE04F093
:1012200004BE10B5FFF794FFFFF7C1FFFFF7D6FF2D
:10123000BDE8104001F03ABA0A460146BB482038E2
:1012400000F082BC0A460146B848203800F064BC71
:101250000A460146B548103800F076BC2DE9F04743
:101260000C46B54907462C390023D1F80C80CA69D1
:10127000C81D4FF0010C424508D3CB6181F802C074
:101280004A788354521C02F003024A700E690A6ABB
:10129000B24208D30B6281F803C04A788354521CCF
:1012A00002F003024A704D694A6AAA4208D34B62AF
:1012B00081F804C04A788354521C02F003024A7039
:1012C0008946896AD9F8182091420DD3C9F8283087
:1012D00089F805C099F801C000F80C300CF1010C38
:1012E0000CF0030C89F801C099F80110415C01B3BE
:1012F00091482C38012980791DD002293FD003293B
:1013000060D0042913D1D9F828108E4D0E199642B9
:101310007CD208B189F8063029442246384606F0C6
:10132000A9FAD9F828002044C9F828002046BDE8C9
:10133000F0870020FBE7D9F81C107D4A0D194545C0
:101340000DD208B189F8063011442246384606F01D
:1013500091FAD9F81C002044C9F81C00E6E7A8EB74
:10136000010011440246384606F084FAD9F81C10F0
:10137000D9F80C00401A2144C9F81C10D7E7D9F855
:101380002010714A0D19B5420DD208B189F8063006
:1013900011442246384606F06DFAD9F82000204460
:1013A000C9F82000C2E7701A11440246384606F018
:1013B00061FAD9F82010D9F81000401A2144C9F870
:1013C0002010B4E7D9F82410604A0E19AE420DD2AD
:1013D00008B189F8063011442246384606F04AFA28
:1013E000D9F824002044C9F824009FE7681A114462
:1013F0000246384606F03EFAD9F82410D9F814000F
:10140000401A2144C9F8241091E7FFE7521A2944F1
:10141000384606F02FFAD9F82810D9F81800401AE3
:101420002144C9F8281082E70A4601463F4810388F
:1014300000F072BB2DE9F0413F4C03462C3CE21D0D
:10144000D01F0D460078A778411C002601F003014B
:10145000012F0DD0E778012F15D02779012F1DD04E
:101460006779012F25D0DD20A0710020BDE8F08133
:10147000A6700126165421702A4619462C4806F0FB
:10148000F9F9E5601FE0E6700226165421702A463D
:1014900019462D4806F0EEF9256114E02671032661
:1014A000165421702A461946284806F0E3F965616A
:1014B00009E066710426165421702A46194621480F
:1014C00006F0D8F9A5612846D0E7F0B500230A2434
:1014D000302537261F4610E0B4EB107F02D905EB0C
:1014E000107C01E006EB107C01F813C001EB430C0B
:1014F00000015B1C8CF80170DBB29342ECD3F0BDB1
:10150000134810B50168001D0468001D0068081824
:101510000AD008220F49FFF7D8FF0E4920460422BF
:10152000BDE810401031D0E710BD00003C040020A1
:101530003C050020000C0140540000206401002004
:10154000DC1500203C1100203C0900203C0D00204F
:10155000E8F7FF1F5E00002070B5294D28780128AC
:1015600015D140212748FFF779FE0404240C4FF0E1
:1015700000060DD02246C021224801F08DF92146F7
:10158000012001F072FB012001F048FA6E6070BD8D
:101590002E7070BD1B4910B54031032001F017FDBE
:1015A00081B218484030FFF74DFEBDE810400320DF
:1015B00001F044BA70B51448006805281FD1104CDA
:1015C000207800281BD16068411C6160052816D175
:1015D0000020606040210B48FFF740FE05042D0C01
:1015E0000DD02A46C021074801F056F929460120AE
:1015F00001F03BFB012001F011FA0120207070BDC9
:10160000840000203C150020640100202DE9F041F9
:101610004C4E88B0002430684B4D688068884B4F32
:1016200039880840800507D54FF6FF50306028788C
:10163000401C2870FFF7BEFF688839880840000406
:1016400001D501F047F8688839884FF6FF3808401F
:10165000400504D5C6F800803D4840688047698849
:1016600038880140890402D54DF6FF7131606988E0
:101670000140C80405D54EF6FF703060002000F030
:10168000F0F968883988084000050BD531480078A2
:1016900010B100F082F902E0022000F0E2F94FF20E
:1016A000FF703060688839880840C00546D54FF61D
:1016B000FF6030602348001D00684FF00002000406
:1016C00038D56868401C68606868032833D91D48AD
:1016D000001F016809072ED4016889B2A9601E495C
:1016E0004FEA0D0301EB8407D7F8007CBFB243F843
:1016F0002470641C082CF5D3AC6844F00104AC6081
:10170000AC68A4B20460AC6824F00104AC60AC68BE
:10171000A4B2046030684005FCD5C6F80080002003
:1017200053F8204001EB8006A4B2C6F8004C401CE0
:101730000828F5D36A60072000F093F908B0BDE8E7
:10174000F0810000445C00408C00002088010020F3
:10175000EC0000206801002000500040FFF756BF59
:101760004FF4802004F054B810B5FFF7C9FE764856
:1017700000240068847200F0F1F801F009FC73485D
:10178000046010BD704810B50068714A0021817274
:10179000D2794272C172084601F0C0F84FF400716C
:1017A000002001F0D3F81021002001F0E4F84021DE
:1017B000002001F036FA8021002001F026FA0020F6
:1017C00001F068F9634890F82C10002001F06BFAE2
:1017D000002001F033F90021012001F0B7F8C02109
:1017E000012001F012FA2021012001F0C4F80021AB
:1017F000012001F0D6F84FF4C061022001F0A6F8F4
:101800004FF48071022001F000FA0021022001F063
:10181000C8F82021022001F0AEF80021032001F0D9
:1018200095F84FF48871032001F0FBF94021032063
:1018300001F039FA4FF44051032001F0B2F80021D1
:10184000032001F098F8002000F070FE3F490120CD
:10185000086010BD4048807A002802D03B4905202E
:1018600008607047394904200860704739481C38BF
:101870000178202901D1002101707047704710B113
:101880003448183870473049082009680882002019
:10189000704710B12F48183870472B490820096845
:1018A000088200207047284A10B5002112682128BC
:1018B00002D0202808D019E0107800F07F002128FD
:1018C00014D1AFF231010AE0107800F07F00212836
:1018D00001D1AFF255011F4B20201C3B187029B1DC
:1018E0000020916150828847002010BD022010BD69
:1018F00015490968097801F07F01212903D10228DF
:1019000003D0222801D002207047002070471149DF
:10191000103900F035BC0F49083900F031BC0A49D4
:101920000968C978042901D900207047094A303272
:1019300002EBC10100F024BC09B9012801D9022041
:1019400070470020704700007C01002064010020E7
:10195000DC910008EC000020DC15002010B501200F
:10196000FFF755FC6248012101600021614A0160D6
:10197000031D19604FF4E05111800160002010BD7B
:1019800010B55B4C01202060211D00200860FFF78E
:101990003EFC03202060002010BDF8B55449002013
:1019A00000900A68544B554C92B200BF03EB80057F
:1019B000D5F8005CADB244F82050401C0828F5D39F
:1019C00042F48060086040F00100086020F00105EA
:1019D0000D60474A121D10684005FCD54FF6FF30D8
:1019E0001060002054F8206003EB8007B6B2C7F8FF
:1019F000006C401C0828F5D345F008000860086812
:101A000080B240F0040008603D4B186800901868F0
:101A100020F0030040F0010018603A48046844F0E8
:101A2000040404601468E40409D54EF6FF741460DD
:101A30000A6892B222F008020A60009919600168EF
:101A400021F004010160F8BD10B5294C206880B276
:101A500020F004002060FFF7B8FB4FF43F40206007
:101A600010BD2DE9F041284C072800D020702278C5
:101A7000254D0627052104261D48062A0BD2DFE83E
:101A800002F0030C11161E27686810B12170BDE822
:101A9000F081FFF7D9FF2770F9E7FFF7D5FF267030
:101AA000012022E00220607003202070EFE76078C0
:101AB000401E607060780028E9D12670E7E7026870
:101AC00092B242F01002026021700A206070DEE7DC
:101AD0006178491E617061780029D8D1016889B2A6
:101AE00021F010010160277000206860CFE700003E
:101AF000405C00408801002000500040BC150020E0
:101B00000070004010ED00E06C0100200260C16038
:101B1000416081600020704770B5002483680FE049
:101B2000C56806685B1C35449D4200D8C36845689B
:101B30009D4207D011F8015B866835708360641C94
:101B40009442EDD3204670BD30B500230DE04468CB
:101B5000651C45602478CC54C46805682C444568ED
:101B60005B1CAC4201D8C468446045688468A542E7
:101B700004D0934202D204689C42E8D8184630BD93
:101B800010B50021426807E0C3680468491C23447B
:101B9000521C934200D8C2688368934202D0036803
:101BA0008B42F1D8084610BDF0B54468059E056823
:101BB0000AE027788F420CD0C768D0F800C0641CB8
:101BC0006744A74200D8C4688768A74201D06D1E49
:101BD000EFD28168A14228D0691C26D0C768D0F80E
:101BE00000C0611C674409E0C16809E00F789742B2
:101BF0000BD0C768D0F800C0491C67448F42F3D9A6
:101C000087688F4201D06D1EF0D282688A420CD064
:101C10006A1C0AD0C268076817444A1C974200D859
:101C2000C26801684D1B00210DE00020F0BD00BF1F
:101C300014F8017B5F54C768D0F800C0491C6744A2
:101C4000A74200D8C468944206D0B14204D20768C3
:101C50008F4201D96D1EEBD242600846F0BDF0B54F
:101C60004468066809E025788D420BD0C56807688E
:101C7000641C3D44A54200D8C4688568A54201D0D3
:101C8000761EF0D28568A54227D0751C25D0C56880
:101C900007682F44651C09E0C56809E02F788F426A
:101CA0000BD0C768D0F800C06D1C6744AF42F3D9B1
:101CB0008768AF4201D0761EF0D28168A9420CD06D
:101CC000711C0AD0C16807686D1C3944A94200D84C
:101CD000C56801688E1B00210DE00020F0BD00BF2B
:101CE00014F8017B5754C768D0F800C0491C6744FA
:101CF000A74200D8C468AC4206D0994204D2076813
:101D00008F4201D9761EEBD2022908DCC26800217D
:101D1000641E944203D2C2680368D418641E4460EF
:101D20000846F0BDF0B54468056809E026788E42A3
:101D30000BD0C6680768641C3E44A64200D8C4683D
:101D40008668A64201D06D1EF0D28168A1420CD0F7
:101D50006D1C0AD0C1680568641C2944A14200D8E2
:101D6000C4684168066800250DE00020F0BD00BF92
:101D700011F8017B5755C768D0F800C06D1C674447
:101D80008F4200D8C168A14203D09D4201D2761E85
:101D9000EED241602846F0BDF0B54468059E0027AC
:101DA00005680EE0B94202D1277897420FD014F8A7
:101DB000017BD0F80CC0D0F800E0F444A44500D872
:101DC000C468D0F808C0A44501D06D1EEAD281686D
:101DD000A1420CD06D1C0AD0C1680268641C114479
:101DE000A14200D8C4684168056800220DE00020C7
:101DF000F0BD00BF11F8017B9F54C768D0F800C048
:101E0000521C67448F4200D8C168A14203D0B2423D
:101E100001D26D1EEED241601046F0BD0360B2FBF0
:101E2000F3F24260016100218160C16008467047A1
:101E30002DE9F041C568174688460446002614E09F
:101E400060686D1C854200D30025A068A8420ED0B2
:101E50002069E168226801FB02002268414605F022
:101E600009FD2168E5608844761CBE42E8D330460F
:101E7000BDE8F0812DE9F041002590460E4604466C
:101E80002F4612E02069A168226801FB0201226846
:101E9000304605F0EFFC20680644A068401CA060B6
:101EA00061686D1C884200D3A760A068E168884221
:101EB00004D06068A84201D94545E3D32846D7E756
:101EC0000021826805E04368491C521C9A4200D3F5
:101ED0000022C368934202D043688B42F3D808467D
:101EE0007047000010B5FB4C30B1FB48006800683B
:101EF000804720680A3010BD216801200882002038
:101F000010BDF44810B50068F44AC1785278914287
:101F100003D882780AB982880AB1022010BD817282
:101F2000ED48006840688047002010BD10B5E94CBE
:101F300030B1E94800688068804720680C3010BDE7
:101F4000216801200882002010BD10B5E14CE44A50
:101F500020681268C17892694079904721688A7A2E
:101F600022B118B9087908B9887808B1022010BDE3
:101F7000D9480068C068804720684179C172C1783B
:101F80000173002010BDD34910B5096860B1D54870
:101F9000002202800A7853060AD002F07F02012A4A
:101FA00016D0022A16D001E002200882002010BDBF
:101FB000497A8A06027802D542F0020201E002F074
:101FC000FD0249060270D1B211D401F0FE0110E009
:101FD000C44810BD4A7911071306C34A02EB916148
:101FE000D1F8001C07D5C1F3011106E0017841F0DA
:101FF0000101017003E0C1F301310129F6D0B648B7
:10200000006800698047E3E72DE9F041B1480068C6
:10201000017811F07F0102D0022905D066E0417AF3
:1020200001F0DF0141724EE0418800295ED1017963
:10203000F1BB4179AC4D21F080040A0605EB840226
:10204000A64BD2F8002C03D5C2F30112120102E014
:10205000C2F3013212031E782346A64246D93AB390
:10206000807A28B308064FEA84000ED52844D0F8B9
:10207000000CC0F30110012821D1184600F09CFD8E
:102080002046302100F077FC19E04619D6F8000C04
:10209000C0F30130012812D14BF68F7748F2800847
:1020A000A4B1184600F076FDD6F8000C384000E0E8
:1020B0001CE080F4405040EA0800C6F8000C864856
:1020C0000068406980470020BDE8F081874890F8AB
:1020D0002C10002000F0E7FDD5F8000C384080F40B
:1020E000405040EA0800C5F8000CE8E70220EBE7A2
:1020F00070B578487C4D0368597921F0800005EB74
:1021000080000C06D0F8004C21F0800203D5C4F307
:102110000114240102E0C4F3013424036F4D2D782F
:10212000954210D95A8872B96CB19A7A5AB1090697
:10213000D0F8001C48F2800207D548F6BF7319405A
:1021400081F0100106E0022070BD4BF68F7319403C
:1021500081F480511143C0F8001C5F480068806919
:102160008047002070BD5B4810B50068417A41F09F
:102170002001417258480068C0698047002010BDA6
:10218000544A13685A8A10B1086810447047888806
:10219000801A1882002070472DE9F047DFF834815B
:1021A000534F4FF03009D8F8001001F11005088A9C
:1021B0000E7A08B9042E04D0AC88A04216D80426A2
:1021C00015E04848801E0178012903D00726102019
:1021D00038802BE0474A00211268474B120403EB7A
:1021E000D2325160A7F8009001701FE002268442AD
:1021F00000D90446A968204688478246002000F09E
:102200001DFD01462246504600F046FB21460020B7
:1022100000F02BFD2888001B2880688820446880F7
:10222000A7F8009035494FF440500880D8F80000D6
:102230000672BDE8F08770B5264D286801784478AD
:102240004A0606D001F07F00012828D002282BD0B2
:1022500035E0092C06D0052C07D0032C0ED0012C1C
:1022600014D02CE0FFF74DFE28E0C1787F292ED84E
:10227000817861BB818851BB807A27E0C1780129D0
:102280001DD18088D8B9FFF76EFF17E0C17801290A
:1022900015D1818899B9407A80060AD40FE00B2CB9
:1022A0000DD1FFF752FE09E0012C02D0032C03D020
:1022B00005E0FFF7A9FE01E0FFF71AFF48B1084962
:1022C0002046096849698847032819D008B10820C1
:1022D00024E017E07C010020840100203C01002064
:1022E000800100207601002000500040EC0000201A
:1022F0008C010020505C0040006000408A010020FA
:1023000009200BE0DE4A062000211268DD4B120492
:1023100003EBD2325160DC4A302111802968087207
:1023200070BDF8B5D94CDA4D092620680027296818
:102330004278062A05D0AAB1082A4ED00A2A52D0DD
:102340006EE0027852066BD18078012804D0022812
:1023500004D0032804D063E0C96959E0096A57E052
:10236000496A55E04288BABBC288022A58D102792C
:1023700092BB0278530601D1838833B102F07F0209
:10238000012A05D0022A0DD04AE0AFF205413FE014
:102390008A69407900219047F0B92068807A002846
:1023A000F3D13DE0417901F00F0001F070020B061E
:1023B000B84901EB8001D1F8001C03D5C1F301112C
:1023C000090102E0C1F301310903B34B1B788342D9
:1023D00026D90AB90029D8D122E0007840061FD1B9
:1023E000AFF2FF4114E0027802F07F02012A17D118
:1023F000827AAAB142889AB902798AB9C288012A36
:102400000ED18A6940790021904748B9AFF2E34183
:1024100031B120684782816100208847002006E0B2
:1024200029682068096940788847032813D0216803
:102430000A8AA2F57F43FF3B0BD002280ED06AB177
:102440000878000625D5C888009082420AD90882FB
:1024500018E00E72F8BD20680672F8BD4FF0080053
:102460000872F8BD0ED228688C4B90F82C0082427E
:1024700001D21F7006E0B2FBF0F400FB142008B993
:1024800001201870286890F82C008882BDE8F84078
:1024900082E603200872824900030880F8BD814863
:1024A00010B590F82C10002000F0FDFB7748006874
:1024B000007A082802D0092809D006E078494FF4AC
:1024C00080500880704910200880002010BD012035
:1024D00010BD70B56A4800686C4D0004C10B6948B6
:1024E0000144098989B200EB41042868017A09296D
:1024F0000FD02178017061784170A08800F03CFD18
:1025000029684880208900F037FD29688880A089E3
:10251000C880286801210172C08820B1FFF701FF3F
:10252000BDE87040BBE7FFF786FEF9E7F0B55A4912
:10253000584D48F68F770B78002148F2800C0BE05D
:10254000CEB205EB8604D4F8002C3A40324342EA7E
:102550000C02C4F8002C491C9942F1D3484940F0C0
:102560008000091F0860F0BD10B5484C2068017A52
:10257000022904D0042902D0062905D015E0FFF76E
:102580000BFE2068007A11E04178052909D1017815
:10259000490606D1C078FFF7C9FF43480068006AC2
:1025A00080473B480068806880470820216808729F
:1025B000BDE8104073E710B5344C2068007A02285B
:1025C00011D004280FD0032804D0052802D00728F2
:1025D00005D008E000F00EF82068007A04E02C48EE
:1025E0000068C0688047082021680872BDE8104074
:1025F00055E770472DE9F047244EDFF88C803027EF
:10260000356835F8100FA968A9B100B3AC888442C9
:1026100000D904462046884781462888001B288028
:10262000688820446880002000F013FB01462246A1
:10263000484600F044F9288848B119494FF4405001
:1026400008800021084600F010FBA8F800702888D8
:10265000A988884201D3032001E018B10520316820
:102660000872E6E53168062008720549002009680D
:10267000044A090402EBD1314860A8F80070D8E59B
:10268000505C0040006000408C0100207C01002074
:1026900080010020005000403C0100207401002017
:1026A0008A010020EC000020840100200648054932
:1026B000022201600A72064A0449C0E90112086850
:1026C00000470000DC1500207C010020EC00002009
:1026D000400100202DE9F84F0020ADF80000DFF8A0
:1026E0009CA14BF6BF7648F28007644D644C40F6DF
:1026F0008F7848F60F7BDFF88C910AF1440A31E0BD
:102700000888614A10F00F00107034D05F4901EB67
:102710008001D1F8002CADF80020BDF80020120493
:102720000BD5D1F8002C02EA0802C1F8002C584958
:1027300001EB800050F8040C8047BDF80000000653
:1027400010D551485149007801EB8001D1F8002C97
:1027500002EA0B02C1F8002C4E4901EB800050F850
:10276000040C8047DAF800004946A9F8000000048C
:10277000C6D4BDE8F88F28682080208800F030009B
:102780006080208800F4405020802868304080F429
:10279000005080F02000384328600888C006286870
:1027A00015D400EA0B002860FFF7DEFE26E0218842
:1027B000890401D580F400506188C90626D4618857
:1027C000890601D580F0200038432860D1E7ADF8B4
:1027D0000000BDF80000000506D5286800EA0800E2
:1027E0002860FFF776FE09E0BDF800000004B9D5C7
:1027F000286800EA08002860FFF7DDFE28682188C5
:102800003040C904D3D580F48050D0E780F0100068
:10281000D5E72DE9F041194C1B4E1C4F4434194D9E
:1028200026E000BF47F6FF702060288800F00F0107
:1028300007EB81003170D0F8002C92B2130408D558
:10284000D0F8002C40F68F731A40C0F8002C1048C6
:1028500009E012060CD5D0F8002C48F60F731A4088
:10286000C0F8002C0B4800EB810050F8040C8047A6
:10287000206828800004D5D4BDE8F081005C0040C9
:102880008A0100208E0000207801002000500040C6
:10289000B400002098000020104B10B5521C5208C4
:1028A00003EB41010AD000BF10F8013B521E10F8A3
:1028B000014B43EA042321F8043BF5D110BD074B3B
:1028C000521C520803EB410106D000BF31F8043B13
:1028D00020F8023B521EF9D1704700000060004012
:1028E000FC4908607047FB48006880B27047F949AE
:1028F000091D08607047F748001D006880B27047E6
:10290000F4480830006880B27047F2490C31086022
:102910007047F0480C30006880B27047ED4920F0F5
:102920000700103108607047EA481030006880B234
:102930007047E94A02EB8000C0F8001C7047E64986
:1029400001EB8000D0F8000C80B270478200E248B2
:102950000244D2F8000C48F68F1318400843C2F81E
:10296000000C7047DC4901EB8000D0F8000CC0F38C
:102970004120400270478200D7480244D2F8000C40
:1029800048F6BF731840CB0601D580F010008906C9
:1029900001D580F0200048F280010843C2F8000C05
:1029A00070478200CC480244D2F8000C4BF68F737B
:1029B0001840CB0401D580F48050890401D580F4FF
:1029C000005048F280010843C2F8000C704700B57F
:1029D0000A460346FFF7B3FF9900BF4B012A19448B
:1029E00007D0022A04D120F0100000BFC1F8000C6B
:1029F00000BD20F48050F9E7B74901EB8000D0F822
:102A0000000CC0F3011000017047B34901EB8000D6
:102A1000D0F8000CC0F30130000370478100AE48CD
:102A20000144D1F8000C48F6BF72104080F030002D
:102A300048F280021043C1F8000C70478100A6489C
:102A40000144D1F8000C4BF68F72104080F44050D6
:102A500048F280021043C1F8000C704781009E4884
:102A60000144D1F8000C48F68F72104048F28012F1
:102A70001043C1F8000C7047810097480144D1F819
:102A8000000C48F68F62104048F280021043C1F8F3
:102A9000000C7047810090480144D1F8000C48F6C2
:102AA0008F62104048F280021043C1F8000C70475A
:102AB000810089480144D1F8000C48F68F7210401B
:102AC00048F280121043C1F8000C70478100824820
:102AD0000144D1F8000C48F68F72104048F2801281
:102AE0001043C1F8000C704781007B480144D1F8C5
:102AF000000C48F68F62104048F280021043C1F883
:102B0000000C7047744901EB8000D0F8000CC0F352
:102B10000110012800D0002070476F4901EB8000B0
:102B2000D0F8000CC0F30130012800D0002070471D
:102B3000810069480844D0F8001C40F68F721140AB
:102B4000C0F8001C7047810063480844D0F8001C9E
:102B500048F60F721140C0F8001C704781005E48B3
:102B60000144D1F8000C48F68F7210404CF28002FC
:102B70001043C1F8000C7047810057480144D1F858
:102B8000000C48F68F72104048F2C0021043C1F8A2
:102B9000000C7047810050480844D0F8001C4904DC
:102BA00009D5D0F8001C48F68F7211404CF2800213
:102BB0001143C0F8001C7047810047480844D0F812
:102BC000001C490609D5D0F8001C48F68F72114048
:102BD00048F2C0021143C0F8001C704782003E4812
:102BE0001044D0F8002C48F68F731A400A4348F27C
:102BF00080010A43C0F8002C7047374901EB800080
:102C0000D0F8000C00F00F007047324A21F00101AB
:102C10001032126892B202EBC000304A42F8101033
:102C200070472C4A21F001011032126892B202EB77
:102C3000C0002A4A02EB40008160704725491031EC
:102C4000096889B201EBC000244931F8100080B254
:102C5000704720491031096889B201EBC0001F4953
:102C600001EB4000008980B270471A4A10321268A6
:102C700092B202EBC000194A02EB4000416070477B
:102C80003E2909D94A09C90601D1521E92B24FF410
:102C9000004141EA822104E04A08C90700D0521CE1
:102CA0009102016070470B4A1032126892B202EB37
:102CB000C0000A4A0C3202EB40023E2910D94809F2
:102CC000C90601D1401E80B24FF4004141EA802084
:102CD0000BE00000405C00400050004000600040FD
:102CE0004808C90700D0401C800210607047A54901
:102CF000096889B201EBC000A34901EB400080885C
:102D0000C0F3090070479F49096889B201EBC00010
:102D10009D4901EB40008089C0F30900704730B540
:102D200021F0010497490B6822F001029BB203EBEA
:102D3000C0035D00944BEC50096889B201EBC00000
:102D400003EB4000826030BD8E4A21F00101126821
:102D500092B202EBC0008C4A42F810107047894AC8
:102D600021F00101126892B202EBC000864A02EB28
:102D70004000816070478349096889B201EBC00057
:102D8000814931F8100080B270477E49096889B2E4
:102D900001EBC0007C4901EB4000008980B2704724
:102DA0002DE9F043774D012912D002290ED129686F
:102DB00089B201EBC0014B0073490B445A602B6888
:102DC0009BB203EBC00001EB4000C260BDE8F083A2
:102DD00029686D4B89B201EBC0011B1D03EB410C4F
:102DE000530951085E1E4C1C4FF400493E2A07D976
:102DF0001F465FEAC26800D1B7B249EA872705E0FB
:102E00000F465FEAC27800D02746BF02CCF80070B8
:102E10002D68ADB205EBC0005B4D0C3505EB4000F5
:102E20003E2A05D9D10600D1B3B249EA832103E095
:102E3000D20700D0214689020160C7E7514B012922
:102E40000AD0022907D1196889B201EBC0004E49A6
:102E500001EB400042607047196889B201EBC00085
:102E60004949091D01EB40013E2A09D95009D20602
:102E700001D1401E80B24FF4004242EA802004E0BB
:102E80005008D20700D0401C8002086070473D4BBC
:102E900001290AD0022907D1196889B201EBC000C3
:102EA000394901EB4000C2607047196889B201EBF3
:102EB000C00035490C3101EB40013E2A09D95009C7
:102EC000D20601D1401E80B24FF4004242EA802077
:102ED00004E05008D20700D0401C80020860704710
:102EE0002849096889B201EBC000274901EB40007D
:102EF0008088C0F3090070472249096889B201EB54
:102F0000C000214901EB40008089C0F309007047EF
:102F10001C4A116889B201EBC0014B001A490B44ED
:102F20009B8913F47C4F01D001207047126892B244
:102F300002EBC00001EB400080888005F5D0022044
:102F40007047124B48F68F7203EB800001290AD0BC
:102F5000022907D1D0F8001C11404CF28002114325
:102F6000C0F8001C7047D0F8001C114048F2C002A5
:102F7000F5E741EA00207047C1B2000A40EA0120AB
:102F800070470000505C004000600040005000406E
:102F900018490020086018494FF43F40088015493F
:102FA000091F08600020704770B500F07F051446C7
:102FB0000E462846FFF742FE0146A2B23046FFF712
:102FC0006BFCA1B22846FFF750FE002070BD70B523
:102FD00000F07F060D463046FFF795FE044630466A
:102FE000FFF737FE014622462846FFF768FC2046D9
:102FF00070BD0000445C0040880100207CB50024C6
:103000002546684600F02DFE042069462D0245EA5B
:10301000146522020C5C1443401EF7D52046294655
:103020007CBD7CB500242546684600F033FE0420B4
:1030300069462D0245EA146522020C5C1443401EC9
:10304000F7D5204629467CBD7CB500242546684638
:1030500000F012FE042069462D0245EA14652202A2
:103060000C5C1443401EF7D5204629467CBD10B5A4
:1030700000220A60835CD400A3400C68521C2344E5
:103080000B60042AF6DB10BD10B500214254120A71
:1030900042EA03621B0A491C0529F7DB10BD002226
:1030A0008154521C090AD2B2022AF9D3704710B5D2
:1030B00000220A80835CD400A3400C88521C234465
:1030C000D2B20B80022AF5D310BD000010B502F079
:1030D000C8F8202001F073FF4FF4006000F0D4FA2C
:1030E000401C2CD0102001F0AAFC012001F0B4F803
:1030F000082001F064FFC74800F02FFC012001F018
:10310000C5F8C54800F0FAFB012001F0DFFA4FF2E4
:10311000F20000F0DFFD012000F0E1FD002000F0F2
:1031200028FD48F2700000F02BFD0121BB4801F0A2
:10313000E1FBBB480121C1710021017210BDFEE716
:103140001CB5B84C4FF0030B84F808B0FFF7BEFF76
:103150004FF00008B44F4046215C3954401C0A2807
:10316000FADB032002F01EF9AE4CDFF8C0A2DFF854
:10317000C0920026203C207848B9002001F0B5FB21
:1031800040F6C41001F087FB002001F05EFB5546BD
:1031900000210F2000F0B0F928422061F8D02078FB
:1031A000022800D12670208A40047DD526816089BE
:1031B0000021401C6081102000F09EF99D4DC0F35D
:1031C00009004FF48142288000210F2000F068F9A7
:1031D00029887F2903D80022974800F0FBFC9648F5
:1031E000037AA370827862706069A57909EB0001A7
:1031F00009F800504A708B70C01C6061FFF724FF13
:10320000C4E90601A278032A02EB820303EBC2029F
:1032100001D2083200E0521F834DE2702B3DD2B242
:1032200005EB020C02460B466046FFF72DFFA07827
:10323000401CC04380072CD1D4E906014FF0167220
:10324000801841F10001000A40EA016001F0A5FA8E
:103250006078B87000227449352000F09EFC00218F
:10326000352000F0ABFC40F6C41001F014FB4FF425
:10327000E17001F05DF86078C00703D0012001F033
:1032800091FA04E0032001F08DFA022020704FF043
:1032900001086B4605220021142000F010F99DF86A
:1032A00004002071062100E088E0122000F098F967
:1032B000A0810021102000F01FF9000D6071052190
:1032C000152000F08DF980094FF6FF7101EA8002A8
:1032D00055480D21353000F085FCA178524A01EBAC
:1032E000810002F1350200EBC100D2F8052003296C
:1032F00028440AD202602279027162794271A2895D
:103300004FEA12238371C2710EE040F80D2C22792E
:1033100000F8092C627900F8082CA2894FEA1223E0
:1033200000F8073D427004D0022969D1B8F1000FBE
:1033300066D04FF000080A20291811F80A1C3954E9
:10334000401C3528F8D338482B212B3804F0D7FA05
:103350006078C00754D02078022851D000210F2077
:1033600000F0CAF820610006F8D5607800F003018B
:10337000012903D0C043800709D012E0A4F806B0A9
:1033800001F025F82D4800F0E8FA2D4807E001206B
:10339000E08001F01CF81F4800F0DFFA1E4800F042
:1033A000ADFA002001F0A1FA40F6C41001F073FA62
:1033B000002001F04AFA0220207021E06069AA2270
:1033C00009EB000109F800204A70A2788A70C01C3D
:1033D00060612089401C0004000C20810BD06681B4
:1033E00026810120E08000F0F2FF0A4800F0B5FAE3
:1033F000094800F083FA134A00210F2000F050F82A
:1034000061690A297FF7B7AE0948FDF7AAFC666132
:10341000B1E6000090010020A801002000D00324A4
:10342000F8150020D8010020A026002000D0272475
:10343000D51600208E010020561600209C01002089
:10344000B00100200090272408B551B140F0C00021
:103450008DF80000C8B27F2909D88DF8010002203C
:103460000DE040F080008DF80000012007E040F002
:1034700080008DF80100C8098DF80200032069461C
:1034800001F00AFC08BD08B589B28DF80020120AC7
:103490008DF8012080B26B460222FFF7D5FF08BDF0
:1034A00038B500236C46E254120A5B1C042BFADB8D
:1034B00089B280B223460422FFF7C6FF38BD08B5A3
:1034C00051B140F040008DF80000C8B27F2907D804
:1034D0008DF8010002200BE08DF80000012007E0CC
:1034E00040F080008DF80100C8098DF8020003202B
:1034F000694601F0FEFB08BD38B54FF0FF3489B2D4
:1035000080B26B460422FFF7DAFF30B90321684628
:10351000425C491E02EB0424FAD5204638BD38B57A
:1035200004466B46022200213620FFF7C8FF0E2C0E
:103530002CD2DFE804F00F07152B2B2B2B1D392B7A
:103540002B44494E00208DF800009DF8010000F04A
:10355000FE0019E09DF8000000F0FC00401C04E0B3
:103560009DF8000000F0FC00801C8DF800000DE0CC
:103570009DF8000000F0B30040F048008DF8000016
:103580009DF8010040F080008DF801006B4601229B
:1035900000213620FFF758FF0122114636200DF199
:1035A0000103FFF751FF38BD9DF8000000F0B300A4
:1035B0008DF800009DF8010000F07F00E4E79DF821
:1035C000010040F00200DFE79DF8010000F0FD007F
:1035D000DAE79DF8000000F0CF0040F02000C4E7DB
:1035E00038B54FF6FF7489B280B26B460222FFF7FE
:1035F00066FF30B99DF800009DF8011000EB012036
:1036000084B2204638BD08B503208DF801000120A2
:103610008DF800006B46022200213620FFF714FFD0
:103620004FF4004206212D20FFF72DFF012001F06D
:10363000DEFB0120FFF773FF002008BD08B5010A7B
:103640008DF801108DF800006B46022204212D2018
:10365000FFF7FAFE03208DF800006B4601220621D9
:103660002D20FFF7F1FE00208DF800006B460122AF
:1036700006212D20FFF7E8FE0A212D20FFF73CFF51
:1036800008BD0021084637E72DE9FC410646F74C06
:10369000002704208DF8000084F87C7084F82D70D9
:1036A000C4F8807084F86970C4F8847084F87D7000
:1036B000C4F88870C4F88C703D466034FFF7E1FFB1
:1036C000EB4944F8600D884202D08817BDE8FC81C0
:1036D0000020FFF724FF6B46012200212420FFF782
:1036E000B3FE1E20FFF7AAFF1FFA80F84FEA18204A
:1036F000A073300704D50420FFF7A0FFC4F88400AE
:1037000094F8840010F0FF0F09D002208DF8040017
:1037100001AB012212212D20FFF796FE01E0C4F833
:1037200084500620FFF78AFF60600720FFF786FFBE
:10373000A561A06004EB87007F1CC561042FF9DB45
:10374000B0071AD5A07B2746012804D81C20FFF714
:1037500075FFB86111E003280FD80D20FFF76EFF49
:10376000F8610E20FFF76AFF38620F20FFF766FF4F
:1037700078621D20FFF762FFB862BE48F20700784A
:1037800000F01F0104D018F01F0284F82C2001D192
:1037900084F82C1070070CD55FF0000505F11000BF
:1037A000FFF74CFF04EB85016D1C48630C2DF5DB26
:1037B00006E0002004EB8001401C4D630C28F9DB7F
:1037C000300502D5FFF71FFF09E005213620FFF77E
:1037D00007FF20F4007205213620FFF754FE012078
:1037E000FFF79DFE00210420FFF786FE20630021E5
:1037F0002620FFF781FE40F4A82200212620FFF7B3
:103800004FFE002226213620FFF73DFE00205DE717
:1038100038B500246B46032228212720FFF74FFEEE
:10382000022069460A5C401E02EB0424FAD5E0023D
:1038300002D59148204338BDC4F3140038BD10B5FB
:1038400000238A4C022902D005290FD107E0022A61
:1038500001D012B10AE0E36908E0236A06E0022A17
:1038600001D012B102E0636A00E0A36AC007C00E93
:10387000C34098B210BD7D48807B704708B56B4649
:10388000042200212620FFF71AFE9DF802006B4655
:1038900040F005008DF80200042200212620FFF7E9
:1038A000D3FD08BD08B501438DF80010080A8DF856
:1038B0000100080C8DF802006B4603220821262027
:1038C000FFF7C2FD08BD08B501438DF80010080AD6
:1038D0008DF80100080C8DF802006B4603220C21C4
:1038E0002620FFF7B1FD08BD6048D0F8840070477E
:1038F0005E48406870475D488068704710B5044670
:10390000034601220B212A20FFF79EFD6268002159
:10391000BDE810401E20C3E5584A515C00EB410051
:10392000524901EB8000006B704738B504466D20AA
:103930008DF800006B46012240F606012E20FFF7AD
:1039400083FD41F6060114B140F2076201E041F245
:1039500007622E20FFF797FD38BD2DE9F84F04468A
:103960000578407946494FF00009C84631F8107093
:1039700061783E48491ECEB2C0F88010042D72D046
:10398000072D70D000218A46217801733749E279EA
:10399000096B002A68D021F480010163217A417308
:1039A000217A4FF44033026B03EA01410A43834614
:1039B000026300210420FFF773FD3A4642F604013A
:1039C0002E20FFF760FD3046FFF7AFFF2B4F2D494C
:1039D0000522785D00EB8000431807212B20FFF7BC
:1039E00033FD2949012201EB0A030B212820FFF7AF
:1039F0002BFD785D254951F820200C212820FFF768
:103A00004FFDE079224901EB8000A17930F81120C7
:103A100002212720FFF737FD1E48042130F8162029
:103A20002720FFF730FDE079F8B1A078042842D0D4
:103A300028208DF80000202206212720FFF723FDF3
:103A40006B46012226212720FFF7FEFC1248E17871
:103A500000EB061050F8212008212720FFF720FD59
:103A6000608968B32FE019E01AE01EE0E426002028
:103A70003001CADEA29200080000F0FF6192000847
:103A8000E492000884920008A39200086C92000857
:103A9000B4920008C0920008C4920008012172E7A5
:103AA00041F48001FF08016378E7642206212720A2
:103AB000FFF7E9FCCAE710208DF800000246BBE7DB
:103AC00041F241006081628920212720FFF7DBFC61
:103AD000FE4F0C2123203A68FFF7E2FC07EB46007B
:103AE000042182882320FFF7CEFCA07958B1E07929
:103AF000F7490122431800212120FFF7A5FC4FF0D0
:103B000003094FF0010805F00F00290740EA116092
:103B100061784FF4402202EA81410843920002EAB0
:103B2000095108434FF4003202EA48410843217921
:103B30004FF0F86202EA81510843617940EAC162BC
:103B400000211F20FFF7ACFCA07861784FF4004300
:103B500008430204CBF81020E179082043EA413100
:103B60000A430021CBF81020FFF79AFC0020BDE8A3
:103B7000F88FD8490246888241F604012E2082E45B
:103B8000D4490246C882002118207CE4D1490001B2
:103B900010388969C14088B2704710B51446024494
:103BA000B2F5806F02D94FF0FF3010BD0B46821E78
:103BB00021460920FFF748FC002010BDC54A10B57A
:103BC000126940EA8150024300210820FFF768FC97
:103BD000002010BD30B414460A462146034630BCCE
:103BE00011206CE470B5054616460C460720FFF719
:103BF00096FC2B46224631462520FFF760FCBDE8A7
:103C0000704008208BE438B504466B46022205213B
:103C10001520FFF754FC9DF800009DF8011000EB03
:103C2000012080B205F036FA6FF0050205F07BFA4C
:103C3000C4E9040100212E20FFF7D2FC2080231DBF
:103C4000082200211220FFF73AFC07211520FFF778
:103C5000C7FC608000211020FFF74EFC000DA08102
:103C600038BD034605220021172028E40121172032
:103C700042E4002117203FE40346052200211520DD
:103C80001DE40121152037E40021152034E4012131
:103C9000062031E403460522002106200FE410B57A
:103CA000044600210420FFF727FC8B4908403CB163
:103CB00020F4FF7004F4FF71014341F0010201E0C0
:103CC00020F00102834800210263BDE81040042077
:103CD000FFF7E6BB024602210320FFF7D4BB0246F2
:103CE00000210320FFF7CFBB03460822002101205B
:103CF000FFF7AABB0346082200210120FFF7DFBB24
:103D00002DE9FC5F0746002603208DF800003446AD
:103D100035466B46012207212D20FFF795FB07F062
:103D20000F0749F2202041F62401062F11D2DFE8C7
:103D300007F01003080B0FED41F2240506460E2490
:103D400007E00D46064603E00D4606464E2400E019
:103D500003248DF80060300A8DF801006B460222C2
:103D600000212D20FFF770FB4FF008088DF8008030
:103D70006B46012206212D20FFF766FB02208DF8FD
:103D800000006B46012207212D20FFF75DFB4FF05D
:103D900088098DF800906B46012206212D20FFF73F
:103DA00053FB4FF0800A8DF800A06B4601220621DC
:103DB0002D20FFF749FB00268DF800606B4601229D
:103DC00006212D20FFF740FB05208DF800006B46F3
:103DD000012207212D20FFF737FB8DF80040200A34
:103DE0008DF801006B46022200212D20FFF72CFBED
:103DF0008DF800806B46012206212D20FFF724FB61
:103E00004FF0040B8DF800B06B46012207212D20E6
:103E1000FFF71AFB8DF800906B46012206212D203A
:103E2000FFF712FB8DF800A06B46012206212D2022
:103E3000FFF70AFB8DF800606B46012206212D205A
:103E4000FFF702FB01248DF800406B462246072154
:103E50002D20FFF7F9FA8DF80050280A8DF801009F
:103E60006B46022200212D20FFF7EEFA8DF800802C
:103E70006B46012206212D20FFF7E6FA0A2000F00A
:103E8000B6FF8DF800606B46012207212D20FFF759
:103E9000DBFA8DF800406B46012206212D20FFF74A
:103EA000D3FA02208DF800006B46012207212D2055
:103EB000FFF7CAFA8DF800B06B46012207212D20CA
:103EC000FFF7C2FA642000F092FF07E0A892000812
:103ED000B0920008E4260020FFFF47F08DF8006054
:103EE0006B46012207212D20FFF7AEFA8DF8006006
:103EF0006B46012206212D20FFF7A6FA0A2000F0CA
:103F000076FF012F04D0022F02D007E024251FE7FF
:103F100001AB012208212D20FFF7D1FA0020BDE8D6
:103F2000FC9F7CB50D46044601AB012208212D20E3
:103F3000FFF7C5FA9DF80400800702D44FF0FF3068
:103F40007CBD200E8DF80300200C8DF80200200AA5
:103F50008DF801008DF800406B46042200212D20D1
:103F6000FFF772FAC5F302208DF801008DF80050BA
:103F70006B46022204212D20FFF766FA40208DF8BF
:103F800000006B46012206212D20FFF75DFA00207C
:103F90008DF800006B46012206212D20FFF754FA10
:103FA000012000F024FF01AB012208212D20FFF7A2
:103FB00086FA9DF80400C007F2D000207CBD2DE9F0
:103FC000F041002605460F4634463046FFF7A7FA73
:103FD0000120FFF795FE39462846FFF7A2FF384635
:103FE000FFF72CFBA84200D10126641C052C01D050
:103FF000002EF0D00420FFF783FE3846FFF71EFBAB
:10400000A84201D1002401E04FF0FF340020FFF767
:1040100077FE2046BDE8F08108B504208DF8000049
:104020006B46012202212C20FFF70EFA00208DF8AA
:1040300000006B46012202212C20FFF705FA08BD83
:1040400008B500208DF800006B46012202212C20CB
:10405000FFF7FAF902208DF8000001466B460122B5
:104060002C20FFF7F1F908BDEAE7F8B50126044670
:104070008DF800606B46324600213620FFF7E4F9E8
:1040800000258DF800506B46012206212C20FFF7F9
:10409000DBF98DF800506B4601220A212C20FFF736
:1040A000D3F9FFF7B9FF8DF80040200A8DF8010021
:1040B0006B46022208212C20FFF7C6F9FFF7ACFF60
:1040C0008DF800606B4601220A212C20FFF7BCF915
:1040D000FFF7A2FF8DF800506B4601220021362029
:1040E000FFF7B2F9F8BDF8B504208DF800006B4673
:1040F00001220A212C20FFF7A7F9FFF78DFF0024EA
:104100008DF800406B4601220A212C20FFF79CF914
:10411000FFF782FF01208DF8000002466B46002168
:104120003620FFF791F9012000F061FE76208DF82E
:1041300000006B46012204212C20FFF785F9802521
:104140008DF800506B46012202212C20FFF77CF9EC
:1041500088278DF800706B46012202212C20FFF782
:1041600073F96B46012203212C20FFF7A8F99DF873
:1041700000004FF6FF7101EA002675208DF800005F
:104180006B46012204212C20FFF75EF98DF80050C8
:104190006B46012202212C20FFF756F98DF80070A2
:1041A0006B46012202212C20FFF74EF96B460122BB
:1041B00003212C20FFF783F99DF800508DF8004073
:1041C00035436B46012202212C20FFF73DF98DF883
:1041D00000406B46012200213620FFF735F92846C2
:1041E000F8BD38B50C46024600212C20FFF74BF9EC
:1041F0008DF800406B46012206212C20FFF724F9A0
:1042000038BD10B5044604213620FFF775F914B106
:1042100040F4006201E020F400620421BDE8104097
:104220003620FFF73DB970B50D460646FFF729FA6F
:10423000F74CA0420ED0002133462A460846FFF72D
:104240003EF9052000F0D3FDFFF71BFAA04201D094
:10425000A01770BD002070BD38B500F0030101202B
:1042600000EB411403218DF801108DF800006B461E
:10427000022200213620FFF7E7F8224612212D20E6
:10428000FFF701F90120FFF74AF938BD10B50446E0
:1042900000210420FFF730F9DE49086314B120F44F
:1042A000802001E040F48020086302460021BDE840
:1042B00010400420FFF7F4B810B5D64C02021A20C3
:1042C000216B41F0804121630221FFF7DCF8226B72
:1042D0000021BDE810400420FFF7E2B8CD490A6B89
:1042E00020B122F480500863012003E042F48050A2
:1042F0000863002081F82D000A6B00210420FFF7DD
:10430000CFB808B500218DF80010C2490A6B10B172
:1043100042F0005001E022F000500863000E8DF8DA
:1043200000006B46012203210420FFF78DF808BD31
:1043300010B5044600211A20FFF7DEF8C4F313027B
:104340006FF3130002430021BDE810401A20FFF76D
:10435000A7B8B04AC2E92201704708B56B460122EE
:1043600000210F20FFF7ABF89DF8000000F00100DE
:1043700008BD08B5E0208DF800006B46012203213E
:104380003620FFF761F8F0208DF800006B4601221F
:1043900003213620FFF758F808BD1CB56B460122F3
:1043A00003210F20FFF78BF89DF8000000F080013B
:1043B00000F04000B1EB400F08D001208DF8040060
:1043C000024601AB03210D20FFF73EF81CBD38B5B6
:1043D00040208DF8000000210E20FFF78DF80446E4
:1043E00000F030FC0546002211460E20FFF758F879
:1043F0006B46012200210D20FFF726F8864A002196
:104400000F20FFF74DF8FFF7C8FF224600210E20CE
:10441000FFF746F8284600F026FC7E49002081F888
:104420007D0038BD10B502210F20FFF7D9F800F04C
:10443000100010BD2DE9FC5F4FF00008754D464699
:10444000414685F8688095F82D0085F86E000F20AC
:10445000FFF752F8714A686605F190031168044647
:1044600043F82100491C11600A2900DB1660A4F5FD
:104470000000C01E03D1FFF7AAFFFFF77AFFDFF8A5
:1044800094A161054FF003070AF1640A4FF4807BA1
:104490001CD595F82D00C8B9C4F34220072815D0C3
:1044A000FFF795FFFFF765FF286B04F0F804800025
:1044B00005D55A4600210D20FEF7E5FF06E085F8F8
:1044C0006870D5F88C1009B15046884760044FF0E9
:1044D000010972D5600571D5E00212D5FFF777FFAB
:1044E000FFF747FF286B800007D502B05A46BDE8AA
:1044F000F05F00210D20FEF7C6BF05F8687F696AEE
:104500006DE000211020FFF76BF8424BC0F3090764
:104510006C33022200211120FEF7D1FF687B08B91D
:1045200007F07F07A5F86A70200705D595F86C009D
:10453000810644D5022842D004F0080085F86900BD
:10454000022085F8680095F82D00A8B38DF8049036
:104550006B46012203210F20FEF7B1FF9DF80000FA
:1045600000F0800100F04000B1EB400F07D104F4EF
:10457000C04242EA080200210F20FEF791FF286B9B
:10458000800004D45A4600210D20FEF77CFFD5F8A8
:104590008C1009B150468847FFF744FF30B3FFF74E
:1045A00016FFFFF7E6FE286B800004D55A4600216F
:1045B0000D20FEF768FFB2E408E031E01DE085F869
:1045C00069604FF0080885F87D60B9E704F4DE42C1
:1045D00042EA080200210F20FEF762FF73E0002983
:1045E000E9D002B05046BDE8F05F084701AB0122B8
:1045F00003210D20FEF728FF91E4286B800001D4F1
:10460000FFF7E5FEFFF7B5FE85F87D6075E7000072
:104610003001CADEE4260020F8FF2724E401002050
:10462000200616D5F82200210F20FEF739FF95F855
:10463000690048B185F8696095F82D0020B995F8B2
:104640007D0008B1FFF7C3FE85F86890D5F88810A3
:10465000C5E7A00310D504F4003200210F20FEF7B7
:104660001FFF042085F86800D5F88C1009B150466A
:10467000884785F87D6052E4FD4814EA00029AD02C
:1046800000210F20FEF70CFF85F87D60286B80006D
:1046900001D4FFF79CFEFFF76CFEE00401D5082073
:1046A0000CE020040DD4E00301D5092006E06001F0
:1046B00001D50A2002E0A00203D50B2085F868008E
:1046C00001E085F86870D5F88C1088E738B50446A5
:1046D000C0076B464FF002024FF000014FF026007A
:1046E0002DD0FEF7ECFE9DF80100012220F03C00E9
:1046F00040F014008DF80100114626200DF1010351
:10470000FEF7A2FE6B46012202213620FEF7D7FEFD
:104710009DF800006B4640F084008DF800000122F7
:1047200002213620FEF790FE10208DF800000120B7
:104730008DF80100022228216B4636200BE0FEF79F
:10474000BEFE9DF801006B4620F014008DF80100BC
:10475000022200212620FEF777FEA00711D50F20A8
:104760008DF800006B4601222A213620FEF76CFEF0
:1047700000208DF800006B4601222A213620FEF72A
:1047800063FE38BD10B50020FEF7C9FE00220421EB
:10479000BDE810403620FEF776BE024601210A2011
:1047A000FEF77EBEF8B500240546B24F26468DF8CA
:1047B000004080070BD580208DF800006B46012259
:1047C00000210D20FEF740FE012087F87D00E8075C
:1047D0009DF8000021D040F006008DF800006B46E7
:1047E000012200210D20FEF72FFE03210F20FEF7EE
:1047F000F7FE10F4816F1AD040208DF800006B4650
:10480000012200210D20FEF71FFE0020FFF7F9FC1A
:1048100087F87D604FF0FF3409E040F002008DF82A
:1048200000006B46012200210D20FEF70DFE204600
:10483000F8BD41EA022121F0F002C00703D00021B7
:104840001D20FEF720BE0022F9E770B50446FFF7F1
:10485000A4FD4FF480752A46E00701D04FF4407262
:1048600000210D20FEF70FFEE00712D003210F20DC
:10487000FEF7B6FE10F4816F0BD0FFF7A8FDA0077E
:1048800004D52A4600210D20FEF7FDFD4FF0FF3034
:1048900070BD002070BD38B505466B46012203216E
:1048A0000420FEF70CFE734C75B12A4600210C2043
:1048B000FEF7E9FD9DF8000040F010008DF80000C3
:1048C000206B40F0805008E09DF8000020F01000C0
:1048D0008DF80000206B20F0805020636B46012291
:1048E00003210420FEF7B0FD38BD02462421272015
:1048F000FEF7C9BD70B50E46044600F0A3F90546A3
:1049000000210E20FEF7F8FD0EB1204300E0A04389
:10491000024600210E20FEF7C3FD2846BDE8704088
:1049200000F0A1B938B5044602208DF800006B46AE
:10493000012200212F20FEF787FD002C08D0012046
:104940008DF8000002466B4600212F20FEF77CFD0B
:1049500038BD10B5044604212F20FEF7CDFDC0F36D
:104960000B012180C0F30B40608008212F20FEF74F
:10497000C3FDC0F30B01A180C0F30B40E0800C210C
:104980002F20FEF7B9FDC0F30B012181C0F30B40CE
:10499000608110212F20FEF7AFFDC0F30B41E181B4
:1049A000C0F30B00A08114212F20FEF7A5FDC0F35A
:1049B0000B416182C0F30B00208218212F20FEF7EB
:1049C0009BFDC0F30B01A182C0F30B40E08210BD40
:1049D00038B500240094FFF7D5FE002211462C20A4
:1049E000FEF751FD6B46012206212C20FEF72CFD1F
:1049F000FFF726FB6B46012203213620FEF75FFD01
:104A00009DF800006B4600F00F008DF800000122B9
:104A100003213620FEF718FD012000F0E8F99DF88B
:104A200000006B4640F0F0008DF8000001220321E9
:104A30003620FEF709FD0F4880F87D4038BD38B5B7
:104A400004466B4601220E212B20FEF738FD9DF80F
:104A5000000004F01F0120F01F0001438DF800103A
:104A60006B4601220E212B20FEF7EEFC38BD000024
:104A700000902724E426002038B50446FFF782FE84
:104A80006B4D6C490522285D00EB8000431807211F
:104A90002B20FEF7D9FC684B01220E212B20FEF7BC
:104AA000D3FC285D654951F820200C212820FEF711
:104AB000F7FC4FF4FF1200212820FEF7F1FC604ABA
:104AC00000212820FEF7ECFC22208DF800006B4628
:104AD000012200213620FEF7B7FC07208DF80000E8
:104AE00001226B4611463620FEF7AEFC002226213D
:104AF0003620FEF7C8FC13208DF800006B4601221B
:104B00000C212A20FEF7A0FC0020AFE738B50446B0
:104B1000FFF738FE4FF4FF1200212820FEF7C0FCFB
:104B2000474A00212820FEF7BBFC0220FEF7F7FCD5
:104B30000D20FEF7F4FC042C00D2042422460021B0
:104B40000A20FEF7ADFC10208DF800006B46012214
:104B500024212F20FEF778FC88E7F8B50446802052
:104B60008DF800006B46012211212820FEF76CFC15
:104B70000A208DF800006B46012212212820FEF742
:104B800063FC0F208DF800006B46012212212820C3
:104B9000FEF75AFC00258DF800506B46012229468D
:104BA0002A20FEF751FC01208DF8000002466B46DA
:104BB00000212A20FEF748FC012C1AD00020FEF725
:104BC000AEFC6B46022203212A20FEF778FC01206E
:104BD000FEF7A5FC9DF800609DF801408DF800509F
:104BE0006B46012200212A20FEF72EFC46EA042013
:104BF000F8BD012000F0FBF86B46022203212A20B9
:104C0000FEF75DFCE6E708B56B46012204212A2089
:104C1000FEF755FC9DF8000008BD08B56B46012263
:104C200003212A20FEF74BFC9DF8000008BD000080
:104C30006192000884920008A29200086C92000819
:104C400000FF5F0010B5172000F065F9002809D0BB
:104C50004FF0E0224FF40001C2F88011BFF34F8FF4
:104C6000BFF36F8F10BD002805D04FF0E0214FF447
:104C70000000C1F8000170470020704710B5564C85
:104C80000221204601F085FC0028F9D000212046B1
:104C900001F013FC002010BD2DE9F04198461546A7
:104CA0000F4606460024FFF7CDFF02464B4810236F
:104CB0000360494806E0395D81810189C907FCD05C
:104CC0008189641CB442F6DB002107E018F801403A
:104CD00084810489E407FCD08489491CA942F5D366
:104CE0003E48001F03601046FFF7BDFF0020BDE8EF
:104CF000F0812DE9F0411D461646884607460024FE
:104D0000FFF7A0FF0246354810230360324808E051
:104D100018F8041081810189C907FCD081892970A4
:104D2000641CBC42F4DB00210C4606E08481078948
:104D3000FF07FCD087896F54491CB142F6D327483E
:104D4000001F03601046FFF78EFF0020CFE72DE91C
:104D5000F05F0024DFF888801746064625464FF4AA
:104D6000006B21B15946404601F05DF809E0012E83
:104D700003D13878800700D001255946404601F01C
:104D800054F84FF4805A5146404601F04EF8DFF88F
:104D900054900DE0395D484601F0B7FB01214846CB
:104DA00001F0F7FB0028F9D0484601F0B0FB641C85
:104DB000B442EFD359464446404601F036F85146D6
:104DC000204601F030F8002D04D0BDE8F05F02204D
:104DD00000F00DB8BDE8F09F00300140140801401C
:104DE000000C014000380040FE4800687047FD4953
:104DF0000A6810440A68121A002AFBDD70474FF057
:104E0000FF30704770B5F84864210068B0FBF1F0DE
:104E1000401EB0F1807F11D24FF0E0246061651731
:104E20000F21284600F0E9FA0020A0610720206148
:104E30000521284600F0E1FA002070BDFEE710B51C
:104E400001214FF0C05001F0C9F9012001F068F8CC
:104E500000F042FB012001F055F9412001F0DBF8A0
:104E60000028FAD04FF4807001F05DF9012001F0C4
:104E70005FF901F051FA01F049FA0121084601F009
:104E8000F3F901F043FA47F6FF7001F01AFABDE8B2
:104E9000104001F03BBA1CB52020009000208DF896
:104EA000040008218DF805108DF80600684600F012
:104EB00051FC00201CBD7FB52024ADF80C402820FB
:104EC0008DF80F0003A9C94800F03FFF052101201C
:104ED00000F0F3FF009400248DF8044008208DF8C2
:104EE000050001258DF80650684600F033FC4FF4AC
:104EF000C06000F099FA17208DF808000F208DF897
:104F000009008DF80A408DF80B5002A800F091FAC4
:104F100004B0002070BDB649024600200968114265
:104F200000D00120704710B586B001F043F84FF46F
:104F30008034204601F057F801F082F830B3102099
:104F400000F07EFC022000F06BFC002001F0B0F8C5
:104F5000002001F0BBF8A01101F0B1F8601001F0E1
:104F6000CAF84FF4E011204601F08BF8012001F05F
:104F700090F8392001F04FF80028FAD0022001F013
:104F80008BF800BF01F08FF80828FBD1684601F0CC
:104F9000D3F80121080301F018F90121880301F079
:104FA0001DF901210D2001F010F906B0002010BDFF
:104FB000904A118821F0380101431180704730B5C3
:104FC0008C4D044685B0284601F0D6F90021ADF895
:104FD00000104FF48270ADF80200ADF808106815AB
:104FE000ADF80A00ADF80410ADF80C400720ADF89C
:104FF0000610ADF80E10ADF810006946284601F015
:10500000DFF90121284601F058FA05B030BDF0B5AE
:10501000784E87B0304601F0AFF90021ADF80010AE
:105020004FF48270ADF80200ADF808107015ADF8BD
:105030000A001024ADF80410ADF80C400720ADF8BC
:105040000610ADF80E10ADF810006946304601F0BC
:10505000B7F9A020ADF8140018208DF81700664F9E
:1050600003258DF8165005A9384600F06EFE402045
:10507000ADF8140048208DF8170005A9384600F057
:1050800064FEADF814408DF817408DF8165005A950
:10509000384600F05AFE0021304601F046FA012160
:1050A000304601F00AFA1021384600F0BEFE07B083
:1050B0000020F0BD2DE9F041DFF8408186B0404688
:1050C00001F05AF90020ADF804004FF48271ADF8F8
:1050D0000610ADF808000221ADF80A100121ADF864
:1050E0000C104902ADF80E103021ADF81010ADF8DB
:1050F00012000720ADF8140001A9404601F060F944
:105100004FF42040ADF8000018208DF80300374F11
:1051100003248DF802406946384600F016FE4FF42D
:105120008040ADF8000048208DF8030069463846FD
:1051300000F00BFEBE14ADF8006010258DF8035092
:105140008DF802406946384600F0FFFD00214046D8
:1051500001F0EBF90121404601F0AFF93146384644
:1051600000F061FEE801ADF800008DF803508DF805
:1051700002406946384600F0E8FDA801ADF800009D
:105180008DF803508DF802406946384600F0DDFD89
:1051900006B00020BDE8F081F8B501217D2001F0C6
:1051A00014F84FF6FF70ADF8000000208DF80300F2
:1051B0006946114800F0C9FD0C4D6946284600F0CB
:1051C000C4FD0F4E6946304600F0BFFD69460D48EC
:1051D00000F0BBFD69460C4800F0B7FD0424ADF8B3
:1051E000004013E024000020FC010020000C0140DE
:1051F0000004014000300140000801400038004038
:105200000010014000140140001801408DF80340D7
:105210006946284600F099FD3F25ADF800508DF80D
:1052200003406946304600F090FDADF800508DF81F
:1052300003406946304600F088FD4FF47070ADF8C9
:10524000000010208DF8030003208DF8020069464D
:10525000304600F07AFD0021012000F005FE00201C
:10526000F8BDF8B50124ADF8004010208DF803001A
:105270006A4E03258DF802506946304600F065FD00
:105280000121304600F0D1FD0220FFF7B0FD0121E1
:10529000304600F0C8FD0220FFF7A9FD012130468D
:1052A00000F0C3FDADF8004000208DF803008DF83C
:1052B00002506946304600F048FD0220FFF797FD96
:1052C000F8BD7FB501250024544A0826ADF80850E2
:1052D00030B304208DF80B0002A9104600F035FD14
:1052E0000021084600F0E9FD8DF804408DF80560C6
:1052F00000958DF80650684600F02CFA4FF4407087
:1053000000F092F806208DF80C000F208DF80D00AB
:105310008DF80E408DF80F5003A800F08AF87FBD7D
:105320008DF80B4003208DF80A0002A9104600F00A
:105330000CFD8DF804408DF8056000958DF8064051
:10534000684600F007FA7FBD0020704710B50124C1
:105350000421334800F053FD00B10024204610BD65
:1053600010B5014601242F4800F049FD00B100248A
:10537000204610BD01462B48052912D2DFE801F076
:105380000305070A0D00402109E0802107E04FF4E2
:10539000807104E04FF4007101E04FF4707100F08F
:1053A00044BD704701461F48052912D2DFE801F0CD
:1053B0000305070A0D00402109E0802107E04FF4B2
:1053C000807104E04FF4007101E04FF4707100F05F
:1053D0002ABD70474FF0E020D0F80001C0F3C05064
:1053E000704710B5FFF79FFDFFF7D6FEFFF70AFDE8
:1053F000FFF761FD002010BD09E60907090E00282E
:1054000004DB00F1E02080F80014704700F00F008A
:1054100000F1E02080F8141D7047000000080140F2
:10542000000C014000100140284908432849086049
:10543000704770B50F23C47801780122F4B1244C71
:105440002468457804F4E064C4F5E064240AC4F1F7
:105450000406E3408478B5401C402C4301F1E02170
:10546000230181F80034007800F01F018A404009D0
:10547000800000F1E020C0F8002170BD01F01F00A5
:1054800082404809800000F1E020C0F8802170BD12
:10549000104A114001430E48001F016070470C4A3A
:1054A000121D0029116801D0014300E08143116001
:1054B00070474FF0E0210428086903D020F0040071
:1054C0000861704740F00400FAE700000000FA05A8
:1054D0000CED00E080FFFF1F10B5012000F099FEE9
:1054E000BDE81040002000F094BE1F4908607047DE
:1054F0001D49091F086070471B49843108607047C7
:105500001A4A118821F46071014311807047174ACB
:10551000118821F07F01014311807047134A08B5BB
:105520002C3A10440090016008BD104908B52C3990
:1055300008440090008808BD0B489C300068C0B249
:1055400070470A480830018841F001010180704726
:105550000548A0300068C0B2704704480830018890
:1055600041F002010180704704860D422C6C00401E
:1055700001684FF6FE721140016000210160416038
:105580008160C1606A496A4A0839904203D148681B
:1055900040F00F0006E0664A1432904204D1486899
:1055A00040F0F00048607047614A2832904203D1D1
:1055B000486840F47060F5E75D4A3C32904203D1A0
:1055C000486840F47040EDE7594A5032904203D1A8
:1055D000486840F47020E5E7554A6432904203D1B0
:1055E000486840F47000DDE7514A7832904203D1B8
:1055F000486840F07060D5E74E4A111F904203D1D1
:10560000086840F00F0006E04A4A1432904204D184
:10561000086840F0F00008607047464A283290421F
:1056200003D1086840F47060F5E7424A3C3290428A
:1056300003D1086840F47040EDE73E4A5032904292
:10564000EAD1086840F47020E5E730B5036847F612
:10565000F07293430C6A8A682243D1E904452C43D3
:1056600022438C692243CC6922434C6A22438C6AD0
:1056700022431A430260CA6842600A68826049682D
:10568000C16030BD0021016041608160C160016185
:1056900041618161C161016241628162704700299B
:1056A000016802D041F0010102E04FF6FE721140A4
:1056B00001607047002A026801D00A4300E08A4373
:1056C0000260704741607047406880B27047014691
:1056D0000020CA0002D5174A083A01E0144A083AE5
:1056E00012680A4200D001207047C10003D5114959
:1056F000091F086070470E49083948607047014625
:105700000020CA0002D50B4A083A01E0084A083ACC
:1057100012680A4200D001207047C10003D5054934
:10572000091F086070470249083948607047000047
:105730000800024008040240374900200860091DA3
:105740000860091D0860091D086033493348143199
:105750000860704730B530498379026853B30B68ED
:1057600093430B600A1D13680468A3431360027916
:105770000A441368046823431360274A08321368F5
:105780000468A3431360131D1C680568AC431C60C8
:105790004479102C05D021440A68006802430A604D
:1057A00030BD116804682143116019680068014325
:1057B000196030BD0079084401689143016030BD33
:1057C0000021016001710C22427181717047124900
:1057D00010310A6802430A60704701460E4A0020F1
:1057E000143212680A4200D0012070470A4914316D
:1057F00008607047084A014600201268064B0A40BC
:1058000014331B680B4202D0002A00D001207047DD
:10581000014914310860704700040140FFFF0F0088
:10582000FC4A116801F03801014311607047F949E1
:105830000A6822F008020A600A6802430A60704798
:10584000F4490A6822F010020A600A6802430A60FA
:105850007047F048F0494160F04941607047ED48B9
:10586000ED494160ED4941607047EA48016941F006
:10587000800101617047E748016941F080010161E1
:105880007047E4490420CA68D20701D0012070475C
:10589000CA68520701D502207047C968C906FBD5FE
:1058A0000320704700B50346FFF7EBFF03E000BF9E
:1058B000FFF7E7FF5B1E012803D0002B00D1052076
:1058C00000BD002BF4D1FAE770B505464FF4302641
:1058D0003046FFF7E7FF042811D1CE4C206940F095
:1058E000020020616561206940F04000206130467F
:1058F000FFF7D8FF216941F6FD721140216170BDAB
:1059000030B54FF430252846FFF7CCFF042810D1DE
:10591000C04C206940F004002061206940F0400044
:1059200020612846FFF7BEFF216941F6FB72114056
:10593000216130BD00B50346FFF7A3FF03E000BFC0
:10594000FFF79FFF5B1E012803D0002B00D105202D
:1059500000BD002BF4D1FAE730B54FF430252846CE
:10596000FFF7E8FF042810D1AA4C206940F004009A
:105970002061206940F0400020612846FFF7DAFFEF
:10598000216941F6FB721140216130BDA14900201F
:10599000C969890700D50120704770B5A525FFF7B3
:1059A000F5FF00B100254FF430263046FFF77AFFAF
:1059B000042827D1974C9848A0609848A060206997
:1059C00040F020002061206940F040002061304616
:1059D000FFF768FF41F6EF7604280ED1206941F603
:1059E000DF7108402061206940F0100020618C4880
:1059F00005804FF40050FFF755FF052802D02169BC
:105A00003140216170BDF8B5064600204FF4005CBE
:105A100000900D466046FFF745FF042816D17D4CE7
:105A2000206940F00100206135806046FFF73AFFB1
:105A300041F6FE77042806D1B61C280C009630806B
:105A40006046FFF72FFF216939402161F8BDF0B5AD
:105A500006464FF400570D463846FFF723FF04284B
:105A60000CD16C4C206940F0010020613580384633
:105A7000FFF718FF2169BA1E11402161F0BDF0B592
:105A800006464FF400570D463846FFF70BFF042833
:105A900013D1604C6048A0606048A060206940F06D
:105AA0001000206135803846FFF7FCFE052804D041
:105AB000216941F6EF7211402161F0BD2DE9F041FD
:105AC000C04300F0FF0CC0F30727C0F30746050EE4
:105AD0004FF400584046FFF7E5FE042837D14D4CFF
